{
  "_format": "hh-sol-artifact-1",
  "contractName": "PiggyBankFactory",
  "sourceName": "contracts/PiggyBankFactory.sol",
  "abi": [
    {
      "inputs": [],
      "stateMutability": "nonpayable",
      "type": "constructor"
    },
    {
      "inputs": [],
      "name": "AddressZeroDetected",
      "type": "error"
    },
    {
      "anonymous": false,
      "inputs": [
        {
          "indexed": true,
          "internalType": "address",
          "name": "piggyBankAddress",
          "type": "address"
        },
        {
          "indexed": true,
          "internalType": "address",
          "name": "piggyBankOwner",
          "type": "address"
        }
      ],
      "name": "PiggyBankCreated",
      "type": "event"
    },
    {
      "inputs": [
        {
          "internalType": "string",
          "name": "_savingPurpose",
          "type": "string"
        },
        {
          "internalType": "uint256",
          "name": "_duration",
          "type": "uint256"
        }
      ],
      "name": "createPiggyBank",
      "outputs": [
        {
          "internalType": "address",
          "name": "",
          "type": "address"
        }
      ],
      "stateMutability": "nonpayable",
      "type": "function"
    },
    {
      "inputs": [],
      "name": "developer",
      "outputs": [
        {
          "internalType": "address",
          "name": "",
          "type": "address"
        }
      ],
      "stateMutability": "view",
      "type": "function"
    },
    {
      "inputs": [],
      "name": "getAllPiggyBans",
      "outputs": [
        {
          "components": [
            {
              "internalType": "address",
              "name": "deployer",
              "type": "address"
            },
            {
              "internalType": "address",
              "name": "deployedPiggyBank",
              "type": "address"
            }
          ],
          "internalType": "struct PiggyBankFactory.DeployedPiggyBankInfo[]",
          "name": "",
          "type": "tuple[]"
        }
      ],
      "stateMutability": "view",
      "type": "function"
    },
    {
      "inputs": [
        {
          "internalType": "uint256",
          "name": "_index",
          "type": "uint256"
        }
      ],
      "name": "getUserPiggyBank",
      "outputs": [
        {
          "internalType": "address",
          "name": "",
          "type": "address"
        }
      ],
      "stateMutability": "view",
      "type": "function"
    },
    {
      "inputs": [],
      "name": "getUserPiggyBanks",
      "outputs": [
        {
          "components": [
            {
              "internalType": "address",
              "name": "deployer",
              "type": "address"
            },
            {
              "internalType": "address",
              "name": "deployedPiggyBank",
              "type": "address"
            }
          ],
          "internalType": "struct PiggyBankFactory.DeployedPiggyBankInfo[]",
          "name": "",
          "type": "tuple[]"
        }
      ],
      "stateMutability": "view",
      "type": "function"
    }
  ],
  "bytecode": "0x6080604052348015600f57600080fd5b50336000806101000a81548173ffffffffffffffffffffffffffffffffffffffff021916908373ffffffffffffffffffffffffffffffffffffffff160217905550612d4f8061005f6000396000f3fe608060405234801561001057600080fd5b50600436106100575760003560e01c80634b4dc18c1461005c5780635961e4cf1461008c578063a8848cf5146100bc578063ca4b208b146100da578063d7101344146100f8575b600080fd5b6100766004803603810190610071919061096e565b610116565b60405161008391906109dc565b60405180910390f35b6100a660048036038101906100a19190610b3d565b6102c3565b6040516100b391906109dc565b60405180910390f35b6100c461065a565b6040516100d19190610c86565b60405180910390f35b6100e26107a2565b6040516100ef91906109dc565b60405180910390f35b6101006107c6565b60405161010d9190610c86565b60405180910390f35b6000600160003373ffffffffffffffffffffffffffffffffffffffff1673ffffffffffffffffffffffffffffffffffffffff16815260200190815260200160002080549050821061019c576040517f08c379a000000000000000000000000000000000000000000000000000000000815260040161019390610d05565b60405180910390fd5b6000600160003373ffffffffffffffffffffffffffffffffffffffff1673ffffffffffffffffffffffffffffffffffffffff16815260200190815260200160002083815481106101ef576101ee610d25565b5b90600052602060002090600202016040518060400160405290816000820160009054906101000a900473ffffffffffffffffffffffffffffffffffffffff1673ffffffffffffffffffffffffffffffffffffffff1673ffffffffffffffffffffffffffffffffffffffff1681526020016001820160009054906101000a900473ffffffffffffffffffffffffffffffffffffffff1673ffffffffffffffffffffffffffffffffffffffff1673ffffffffffffffffffffffffffffffffffffffff168152505090508060200151915050919050565b60008073ffffffffffffffffffffffffffffffffffffffff163373ffffffffffffffffffffffffffffffffffffffff160361032a576040517f287170f900000000000000000000000000000000000000000000000000000000815260040160405180910390fd5b6000423360014361033b9190610d83565b4060405160200161034e93929190610e4b565b604051602081830303815290604052805190602001209050600081858560008054906101000a900473ffffffffffffffffffffffffffffffffffffffff16604051610398906108d1565b6103a493929190610f05565b8190604051809103906000f59050801580156103c4573d6000803e3d6000fd5b5090506103cf6108de565b33816000019073ffffffffffffffffffffffffffffffffffffffff16908173ffffffffffffffffffffffffffffffffffffffff168152505081816020019073ffffffffffffffffffffffffffffffffffffffff16908173ffffffffffffffffffffffffffffffffffffffff1681525050600160003373ffffffffffffffffffffffffffffffffffffffff1673ffffffffffffffffffffffffffffffffffffffff16815260200190815260200160002081908060018154018082558091505060019003906000526020600020906002020160009091909190915060008201518160000160006101000a81548173ffffffffffffffffffffffffffffffffffffffff021916908373ffffffffffffffffffffffffffffffffffffffff16021790555060208201518160010160006101000a81548173ffffffffffffffffffffffffffffffffffffffff021916908373ffffffffffffffffffffffffffffffffffffffff1602179055505050600281908060018154018082558091505060019003906000526020600020906002020160009091909190915060008201518160000160006101000a81548173ffffffffffffffffffffffffffffffffffffffff021916908373ffffffffffffffffffffffffffffffffffffffff16021790555060208201518160010160006101000a81548173ffffffffffffffffffffffffffffffffffffffff021916908373ffffffffffffffffffffffffffffffffffffffff16021790555050503373ffffffffffffffffffffffffffffffffffffffff168273ffffffffffffffffffffffffffffffffffffffff167f09f42ca962ab38b126f82c851e2ec619e478d3234034ce070855fcca0c27d49d60405160405180910390a381935050505092915050565b6060600160003373ffffffffffffffffffffffffffffffffffffffff1673ffffffffffffffffffffffffffffffffffffffff168152602001908152602001600020805480602002602001604051908101604052809291908181526020016000905b8282101561079957838290600052602060002090600202016040518060400160405290816000820160009054906101000a900473ffffffffffffffffffffffffffffffffffffffff1673ffffffffffffffffffffffffffffffffffffffff1673ffffffffffffffffffffffffffffffffffffffff1681526020016001820160009054906101000a900473ffffffffffffffffffffffffffffffffffffffff1673ffffffffffffffffffffffffffffffffffffffff1673ffffffffffffffffffffffffffffffffffffffff1681525050815260200190600101906106bb565b50505050905090565b60008054906101000a900473ffffffffffffffffffffffffffffffffffffffff1681565b60606002805480602002602001604051908101604052809291908181526020016000905b828210156108c857838290600052602060002090600202016040518060400160405290816000820160009054906101000a900473ffffffffffffffffffffffffffffffffffffffff1673ffffffffffffffffffffffffffffffffffffffff1673ffffffffffffffffffffffffffffffffffffffff1681526020016001820160009054906101000a900473ffffffffffffffffffffffffffffffffffffffff1673ffffffffffffffffffffffffffffffffffffffff1673ffffffffffffffffffffffffffffffffffffffff1681525050815260200190600101906107ea565b50505050905090565b611dd680610f4483390190565b6040518060400160405280600073ffffffffffffffffffffffffffffffffffffffff168152602001600073ffffffffffffffffffffffffffffffffffffffff1681525090565b6000604051905090565b600080fd5b600080fd5b6000819050919050565b61094b81610938565b811461095657600080fd5b50565b60008135905061096881610942565b92915050565b6000602082840312156109845761098361092e565b5b600061099284828501610959565b91505092915050565b600073ffffffffffffffffffffffffffffffffffffffff82169050919050565b60006109c68261099b565b9050919050565b6109d6816109bb565b82525050565b60006020820190506109f160008301846109cd565b92915050565b600080fd5b600080fd5b6000601f19601f8301169050919050565b7f4e487b7100000000000000000000000000000000000000000000000000000000600052604160045260246000fd5b610a4a82610a01565b810181811067ffffffffffffffff82111715610a6957610a68610a12565b5b80604052505050565b6000610a7c610924565b9050610a888282610a41565b919050565b600067ffffffffffffffff821115610aa857610aa7610a12565b5b610ab182610a01565b9050602081019050919050565b82818337600083830152505050565b6000610ae0610adb84610a8d565b610a72565b905082815260208101848484011115610afc57610afb6109fc565b5b610b07848285610abe565b509392505050565b600082601f830112610b2457610b236109f7565b5b8135610b34848260208601610acd565b91505092915050565b60008060408385031215610b5457610b5361092e565b5b600083013567ffffffffffffffff811115610b7257610b71610933565b5b610b7e85828601610b0f565b9250506020610b8f85828601610959565b9150509250929050565b600081519050919050565b600082825260208201905092915050565b6000819050602082019050919050565b610bce816109bb565b82525050565b604082016000820151610bea6000850182610bc5565b506020820151610bfd6020850182610bc5565b50505050565b6000610c0f8383610bd4565b60408301905092915050565b6000602082019050919050565b6000610c3382610b99565b610c3d8185610ba4565b9350610c4883610bb5565b8060005b83811015610c79578151610c608882610c03565b9750610c6b83610c1b565b925050600181019050610c4c565b5085935050505092915050565b60006020820190508181036000830152610ca08184610c28565b905092915050565b600082825260208201905092915050565b7f496e646578206f7574206f662072616e67650000000000000000000000000000600082015250565b6000610cef601283610ca8565b9150610cfa82610cb9565b602082019050919050565b60006020820190508181036000830152610d1e81610ce2565b9050919050565b7f4e487b7100000000000000000000000000000000000000000000000000000000600052603260045260246000fd5b7f4e487b7100000000000000000000000000000000000000000000000000000000600052601160045260246000fd5b6000610d8e82610938565b9150610d9983610938565b9250828203905081811115610db157610db0610d54565b5b92915050565b6000819050919050565b610dd2610dcd82610938565b610db7565b82525050565b60008160601b9050919050565b6000610df082610dd8565b9050919050565b6000610e0282610de5565b9050919050565b610e1a610e15826109bb565b610df7565b82525050565b6000819050919050565b6000819050919050565b610e45610e4082610e20565b610e2a565b82525050565b6000610e578286610dc1565b602082019150610e678285610e09565b601482019150610e778284610e34565b602082019150819050949350505050565b600081519050919050565b60005b83811015610eb1578082015181840152602081019050610e96565b60008484015250505050565b6000610ec882610e88565b610ed28185610ca8565b9350610ee2818560208601610e93565b610eeb81610a01565b840191505092915050565b610eff81610938565b82525050565b60006060820190508181036000830152610f1f8186610ebd565b9050610f2e6020830185610ef6565b610f3b60408301846109cd565b94935050505056fe608060405234801561001057600080fd5b50604051611dd6380380611dd68339818101604052810190610032919061032e565b600160008190555042821161007c576040517f08c379a000000000000000000000000000000000000000000000000000000000815260040161007390610420565b60405180910390fd5b826003908161008b9190610657565b508160048190555080600160006101000a81548173ffffffffffffffffffffffffffffffffffffffff021916908373ffffffffffffffffffffffffffffffffffffffff16021790555033600260006101000a81548173ffffffffffffffffffffffffffffffffffffffff021916908373ffffffffffffffffffffffffffffffffffffffff1602179055506000600581905550505050610729565b6000604051905090565b600080fd5b600080fd5b600080fd5b600080fd5b6000601f19601f8301169050919050565b7f4e487b7100000000000000000000000000000000000000000000000000000000600052604160045260246000fd5b61018c82610143565b810181811067ffffffffffffffff821117156101ab576101aa610154565b5b80604052505050565b60006101be610125565b90506101ca8282610183565b919050565b600067ffffffffffffffff8211156101ea576101e9610154565b5b6101f382610143565b9050602081019050919050565b60005b8381101561021e578082015181840152602081019050610203565b60008484015250505050565b600061023d610238846101cf565b6101b4565b9050828152602081018484840111156102595761025861013e565b5b610264848285610200565b509392505050565b600082601f83011261028157610280610139565b5b815161029184826020860161022a565b91505092915050565b6000819050919050565b6102ad8161029a565b81146102b857600080fd5b50565b6000815190506102ca816102a4565b92915050565b600073ffffffffffffffffffffffffffffffffffffffff82169050919050565b60006102fb826102d0565b9050919050565b61030b816102f0565b811461031657600080fd5b50565b60008151905061032881610302565b92915050565b6000806000606084860312156103475761034661012f565b5b600084015167ffffffffffffffff81111561036557610364610134565b5b6103718682870161026c565b9350506020610382868287016102bb565b925050604061039386828701610319565b9150509250925092565b600082825260208201905092915050565b7f4475726174696f6e206d7573742062652067726561746572207468616e20637560008201527f7272656e742074696d6500000000000000000000000000000000000000000000602082015250565b600061040a602a8361039d565b9150610415826103ae565b604082019050919050565b60006020820190508181036000830152610439816103fd565b9050919050565b600081519050919050565b7f4e487b7100000000000000000000000000000000000000000000000000000000600052602260045260246000fd5b6000600282049050600182168061049257607f821691505b6020821081036104a5576104a461044b565b5b50919050565b60008190508160005260206000209050919050565b60006020601f8301049050919050565b600082821b905092915050565b60006008830261050d7fffffffffffffffffffffffffffffffffffffffffffffffffffffffffffffffff826104d0565b61051786836104d0565b95508019841693508086168417925050509392505050565b6000819050919050565b600061055461054f61054a8461029a565b61052f565b61029a565b9050919050565b6000819050919050565b61056e83610539565b61058261057a8261055b565b8484546104dd565b825550505050565b600090565b61059761058a565b6105a2818484610565565b505050565b5b818110156105c6576105bb60008261058f565b6001810190506105a8565b5050565b601f82111561060b576105dc816104ab565b6105e5846104c0565b810160208510156105f4578190505b610608610600856104c0565b8301826105a7565b50505b505050565b600082821c905092915050565b600061062e60001984600802610610565b1980831691505092915050565b6000610647838361061d565b9150826002028217905092915050565b61066082610440565b67ffffffffffffffff81111561067957610678610154565b5b610683825461047a565b61068e8282856105ca565b600060209050601f8311600181146106c157600084156106af578287015190505b6106b9858261063b565b865550610721565b601f1984166106cf866104ab565b60005b828110156106f7578489015182556001820191506020850194506020810190506106d2565b868310156107145784890151610710601f89168261061d565b8355505b6001600288020188555050505b505050505050565b61169e806107386000396000f3fe608060405234801561001057600080fd5b50600436106100cf5760003560e01c8063c3b7f51b1161008c578063ca4b208b11610066578063ca4b208b146101f2578063e0bab4c414610210578063f1f1b4781461022e578063f3fef3a31461024a576100cf565b8063c3b7f51b14610198578063c3fafb9c146101b6578063c54e44eb146101d4576100cf565b80630fb5a6b4146100d457806346af7da2146100f257806357d9989c1461011057806366e086671461012c57806389a302711461015c5780638c220e3d1461017a575b600080fd5b6100dc610266565b6040516100e991906111ad565b60405180910390f35b6100fa61026c565b60405161010791906111ad565b60405180910390f35b61012a60048036038101906101259190611269565b610272565b005b610146600480360381019061014191906112a9565b6105ee565b60405161015391906111ad565b60405180910390f35b610164610606565b6040516101719190611335565b60405180910390f35b61018261061e565b60405161018f919061136d565b60405180910390f35b6101a0610624565b6040516101ad9190611397565b60405180910390f35b6101be61064a565b6040516101cb9190611442565b60405180910390f35b6101dc6106d8565b6040516101e99190611335565b60405180910390f35b6101fa6106f0565b6040516102079190611397565b60405180910390f35b610218610716565b6040516102259190611335565b60405180910390f35b61024860048036038101906102439190611269565b61072e565b005b610264600480360381019061025f9190611269565b610b2c565b005b60045481565b60055481565b600073ffffffffffffffffffffffffffffffffffffffff163373ffffffffffffffffffffffffffffffffffffffff16036102d8576040517f287170f900000000000000000000000000000000000000000000000000000000815260040160405180910390fd5b6000600660008473ffffffffffffffffffffffffffffffffffffffff1673ffffffffffffffffffffffffffffffffffffffff16815260200190815260200160002054905060008373ffffffffffffffffffffffffffffffffffffffff166370a08231306040518263ffffffff1660e01b81526004016103579190611397565b602060405180830381865afa158015610374573d6000803e3d6000fd5b505050506040513d601f19601f820116820180604052508101906103989190611479565b905060006105dc61ffff16826103ae91906114d5565b9050600081836103be9190611517565b9050600083111561048f57610416600160009054906101000a900473ffffffffffffffffffffffffffffffffffffffff16838873ffffffffffffffffffffffffffffffffffffffff16610fa19092919063ffffffff16565b610463600260009054906101000a900473ffffffffffffffffffffffffffffffffffffffff16828873ffffffffffffffffffffffffffffffffffffffff16610fa19092919063ffffffff16565b828461046f9190611517565b935082600560008282546104839190611517565b925050819055506104c1565b6040517f6d8251eb00000000000000000000000000000000000000000000000000000000815260040160405180910390fd5b60006005540361054657600160076000600260009054906101000a900473ffffffffffffffffffffffffffffffffffffffff1673ffffffffffffffffffffffffffffffffffffffff1673ffffffffffffffffffffffffffffffffffffffff16815260200190815260200160002060006101000a81548160ff0219169083151502179055505b8573ffffffffffffffffffffffffffffffffffffffff16600260009054906101000a900473ffffffffffffffffffffffffffffffffffffffff1673ffffffffffffffffffffffffffffffffffffffff163073ffffffffffffffffffffffffffffffffffffffff167f6ff58f01241fe14f658148294c5e60f884b47cec1aa2dffcb0da5591cce7756e84866040516105de92919061154b565b60405180910390a4505050505050565b60066020528060005260406000206000915090505481565b73036cbd53842c5426634e7929541ec2318f3dcf7e81565b6105dc81565b600260009054906101000a900473ffffffffffffffffffffffffffffffffffffffff1681565b60038054610657906115a3565b80601f0160208091040260200160405190810160405280929190818152602001828054610683906115a3565b80156106d05780601f106106a5576101008083540402835291602001916106d0565b820191906000526020600020905b8154815290600101906020018083116106b357829003601f168201915b505050505081565b73323e78f944a9a1fcf3a10efcc5319dbb0bb6e67381565b600160009054906101000a900473ffffffffffffffffffffffffffffffffffffffff1681565b73e6f6e27c0bf1a4841e3f09d03d7d31da8ead0a2781565b610736611020565b600260009054906101000a900473ffffffffffffffffffffffffffffffffffffffff1673ffffffffffffffffffffffffffffffffffffffff163373ffffffffffffffffffffffffffffffffffffffff16146107bd576040517f30cd747100000000000000000000000000000000000000000000000000000000815260040160405180910390fd5b60076000600260009054906101000a900473ffffffffffffffffffffffffffffffffffffffff1673ffffffffffffffffffffffffffffffffffffffff1673ffffffffffffffffffffffffffffffffffffffff16815260200190815260200160002060009054906101000a900460ff16610862576040517f4a051b5f00000000000000000000000000000000000000000000000000000000815260040160405180910390fd5b600073ffffffffffffffffffffffffffffffffffffffff163373ffffffffffffffffffffffffffffffffffffffff16036108c8576040517f287170f900000000000000000000000000000000000000000000000000000000815260040160405180910390fd5b73323e78f944a9a1fcf3a10efcc5319dbb0bb6e67373ffffffffffffffffffffffffffffffffffffffff168273ffffffffffffffffffffffffffffffffffffffff161480610955575073036cbd53842c5426634e7929541ec2318f3dcf7e73ffffffffffffffffffffffffffffffffffffffff168273ffffffffffffffffffffffffffffffffffffffff16145b8061099f575073e6f6e27c0bf1a4841e3f09d03d7d31da8ead0a2773ffffffffffffffffffffffffffffffffffffffff168273ffffffffffffffffffffffffffffffffffffffff16145b15610a67576109f3600260009054906101000a900473ffffffffffffffffffffffffffffffffffffffff1630838573ffffffffffffffffffffffffffffffffffffffff16611066909392919063ffffffff16565b80600660008473ffffffffffffffffffffffffffffffffffffffff1673ffffffffffffffffffffffffffffffffffffffff1681526020019081526020016000206000828254610a4291906115d4565b925050819055508060056000828254610a5b91906115d4565b92505081905550610a99565b6040517f7260c60000000000000000000000000000000000000000000000000000000000815260040160405180910390fd5b8173ffffffffffffffffffffffffffffffffffffffff16600260009054906101000a900473ffffffffffffffffffffffffffffffffffffffff1673ffffffffffffffffffffffffffffffffffffffff167f65bf42287612741f938f3338d19e8ec69398292ed9e329fa2cc8d36446a5e38283604051610b1891906111ad565b60405180910390a3610b286110e8565b5050565b610b34611020565b600260009054906101000a900473ffffffffffffffffffffffffffffffffffffffff1673ffffffffffffffffffffffffffffffffffffffff163373ffffffffffffffffffffffffffffffffffffffff1614610bbb576040517f30cd747100000000000000000000000000000000000000000000000000000000815260040160405180910390fd5b60076000600260009054906101000a900473ffffffffffffffffffffffffffffffffffffffff1673ffffffffffffffffffffffffffffffffffffffff1673ffffffffffffffffffffffffffffffffffffffff16815260200190815260200160002060009054906101000a900460ff16610c60576040517f4a051b5f00000000000000000000000000000000000000000000000000000000815260040160405180910390fd5b600073ffffffffffffffffffffffffffffffffffffffff163373ffffffffffffffffffffffffffffffffffffffff1603610cc6576040517f287170f900000000000000000000000000000000000000000000000000000000815260040160405180910390fd5b6000600660008473ffffffffffffffffffffffffffffffffffffffff1673ffffffffffffffffffffffffffffffffffffffff168152602001908152602001600020549050600454421015610d46576040517fbb5e828400000000000000000000000000000000000000000000000000000000815260040160405180910390fd5b818373ffffffffffffffffffffffffffffffffffffffff166370a08231306040518263ffffffff1660e01b8152600401610d809190611397565b602060405180830381865afa158015610d9d573d6000803e3d6000fd5b505050506040513d601f19601f82011682018060405250810190610dc19190611479565b10610e3f57610e13600260009054906101000a900473ffffffffffffffffffffffffffffffffffffffff16838573ffffffffffffffffffffffffffffffffffffffff16610fa19092919063ffffffff16565b8181610e1f9190611517565b90508160056000828254610e339190611517565b92505081905550610e71565b6040517f6d8251eb00000000000000000000000000000000000000000000000000000000815260040160405180910390fd5b600060055403610ef657600160076000600260009054906101000a900473ffffffffffffffffffffffffffffffffffffffff1673ffffffffffffffffffffffffffffffffffffffff1673ffffffffffffffffffffffffffffffffffffffff16815260200190815260200160002060006101000a81548160ff0219169083151502179055505b8273ffffffffffffffffffffffffffffffffffffffff16600260009054906101000a900473ffffffffffffffffffffffffffffffffffffffff1673ffffffffffffffffffffffffffffffffffffffff163073ffffffffffffffffffffffffffffffffffffffff167fa4195c37c2947bbe89165f03e320b6903116f0b10d8cfdb522330f7ce6f9fa2485604051610f8c91906111ad565b60405180910390a450610f9d6110e8565b5050565b61101b838473ffffffffffffffffffffffffffffffffffffffff1663a9059cbb8585604051602401610fd4929190611608565b604051602081830303815290604052915060e01b6020820180517bffffffffffffffffffffffffffffffffffffffffffffffffffffffff83818316178352505050506110f2565b505050565b60026000540361105c576040517f3ee5aeb500000000000000000000000000000000000000000000000000000000815260040160405180910390fd5b6002600081905550565b6110e2848573ffffffffffffffffffffffffffffffffffffffff166323b872dd86868660405160240161109b93929190611631565b604051602081830303815290604052915060e01b6020820180517bffffffffffffffffffffffffffffffffffffffffffffffffffffffff83818316178352505050506110f2565b50505050565b6001600081905550565b600080602060008451602086016000885af180611115576040513d6000823e3d81fd5b3d92506000519150506000821461113057600181141561114c565b60008473ffffffffffffffffffffffffffffffffffffffff163b145b1561118e57836040517f5274afe70000000000000000000000000000000000000000000000000000000081526004016111859190611397565b60405180910390fd5b50505050565b6000819050919050565b6111a781611194565b82525050565b60006020820190506111c2600083018461119e565b92915050565b600080fd5b600073ffffffffffffffffffffffffffffffffffffffff82169050919050565b60006111f8826111cd565b9050919050565b600061120a826111ed565b9050919050565b61121a816111ff565b811461122557600080fd5b50565b60008135905061123781611211565b92915050565b61124681611194565b811461125157600080fd5b50565b6000813590506112638161123d565b92915050565b600080604083850312156112805761127f6111c8565b5b600061128e85828601611228565b925050602061129f85828601611254565b9150509250929050565b6000602082840312156112bf576112be6111c8565b5b60006112cd84828501611228565b91505092915050565b6000819050919050565b60006112fb6112f66112f1846111cd565b6112d6565b6111cd565b9050919050565b600061130d826112e0565b9050919050565b600061131f82611302565b9050919050565b61132f81611314565b82525050565b600060208201905061134a6000830184611326565b92915050565b600061ffff82169050919050565b61136781611350565b82525050565b6000602082019050611382600083018461135e565b92915050565b611391816111ed565b82525050565b60006020820190506113ac6000830184611388565b92915050565b600081519050919050565b600082825260208201905092915050565b60005b838110156113ec5780820151818401526020810190506113d1565b60008484015250505050565b6000601f19601f8301169050919050565b6000611414826113b2565b61141e81856113bd565b935061142e8185602086016113ce565b611437816113f8565b840191505092915050565b6000602082019050818103600083015261145c8184611409565b905092915050565b6000815190506114738161123d565b92915050565b60006020828403121561148f5761148e6111c8565b5b600061149d84828501611464565b91505092915050565b7f4e487b7100000000000000000000000000000000000000000000000000000000600052601160045260246000fd5b60006114e082611194565b91506114eb83611194565b92508282026114f981611194565b915082820484148315176115105761150f6114a6565b5b5092915050565b600061152282611194565b915061152d83611194565b9250828203905081811115611545576115446114a6565b5b92915050565b6000604082019050611560600083018561119e565b61156d602083018461119e565b9392505050565b7f4e487b7100000000000000000000000000000000000000000000000000000000600052602260045260246000fd5b600060028204905060018216806115bb57607f821691505b6020821081036115ce576115cd611574565b5b50919050565b60006115df82611194565b91506115ea83611194565b9250828201905080821115611602576116016114a6565b5b92915050565b600060408201905061161d6000830185611388565b61162a602083018461119e565b9392505050565b60006060820190506116466000830186611388565b6116536020830185611388565b611660604083018461119e565b94935050505056fea2646970667358221220a41ea222d4ba812a958862d42d2bc88e8c51254d67cfe3bd646d6bf0675027ef64736f6c634300081c0033a264697066735822122098b020f5b3e7540bc5095533d1f96ad28d8df7eb97a310904aa562768219358964736f6c634300081c0033",
  "linkReferences": {},
  "deployedLinkReferences": {}
}